:020000040800F2
:10000000480F0020D1010008D9010008DB010008D9
:10001000DD010008DF010008E10100080000000028
:10002000000000000000000000000000E3010008E4
:10003000E501000800000000E7010008E9010008F0
:10004000EB010008EB010008EB010008EB010008E0
:10005000EB010008EB010008EB010008EB010008D0
:10006000EB010008EB010008EB010008EB010008C0
:10007000EB010008EB010008EB010008EB010008B0
:10008000EB010008EB010008EB010008EB010008A0
:10009000EB010008EB010008EB010008EB01000890
:1000A000EB010008EB010008EB010008EB01000880
:1000B000EB010008EB010008EB010008EB01000870
:1000C000EB010008EB010008EB010008EB01000860
:1000D000EB01000849080008EB010008EB010008EB
:1000E000EB010008EB010008EB01000800F002F84A
:1000F00000F05EF80AA090E8000C82448344AAF164
:100100000107DA4501D100F053F8AFF2090EBAE861
:100110000F0013F0010F18BFFB1A43F0010318473B
:10012000100900003009000010F8013B0A4413F0E8
:10013000030408BF10F8014B1D1108BF10F8015B44
:10014000641E05D010F8016B641E01F8016BF9D133
:10015000002D15D010F8014B03F00C030C2BA1EB74
:1001600004040ABF10F8013BA4EB8314A4EB03249E
:1001700005F1010314F8016B5B1E01F8016BF9D561
:10018000914238BF10F8013BD1D3704700230024BF
:1001900000250026103A28BF78C1FBD8520728BF97
:1001A00030C148BF0B6070471FB51FBD10B510BDF3
:1001B00000F033F81146FFF7F7FF00F003FC00F002
:1001C00051F803B4FFF7F2FF03BC00F0B0FB0000EE
:1001D0000948804709480047FEE7FEE7FEE7FEE7DB
:1001E000FEE7FEE7FEE7FEE7FEE7FEE70448054917
:1001F000054A064B70470000E9070008ED000008BB
:1002000048090020480F0020480B0020480B002020
:1002100070477047704770477047754600F028F880
:10022000AE4605006946534620F00700854618B0E3
:1002300020B5FFF7DBFFBDE820404FF000064FF090
:1002400000074FF000084FF0000B21F00701AC460B
:10025000ACE8C009ACE8C009ACE8C009ACE8C0092A
:100260008D4670470446AFF300802046FFF7A9FF94
:1002700000487047E80800202DE9F04102460025BB
:100280000026002000230024002791F803C00CF072
:100290000F0591F803C00CF0100CBCF1000F03D057
:1002A00091F802C04CEA050591F800C0BCF1000FBE
:1002B00031D0146800202BE04FF0010C0CFA00F351
:1002C000B1F800C00CEA03069E4220D183004FF033
:1002D0000F0C0CFA03F7BC4305FA03FC4CEA0404C8
:1002E00091F803C0BCF1280F06D14FF0010C0CFAB5
:1002F00000FCC2F814C00AE091F803C0BCF1480F3A
:1003000005D14FF0010C0CFA00FCC2F810C0401CE3
:100310000828D1D31460B1F800C0BCF1FF0F34DD60
:10032000546800202EE000F1080C4FF0010808FA94
:100330000CF3B1F800C00CEA03069E4221D1830001
:100340004FF00F0C0CFA03F7BC4305FA03FC4CEA20
:10035000040491F803C0BCF1280F05D100F1080C8A
:1003600008FA0CF8C2F8148091F803C0BCF1480FE9
:1003700007D100F1080C4FF0010808FA0CF8C2F898
:100380001080401C0828CED35460BDE8F081416144
:10039000704701617047000008B50121102000F08E
:1003A0008BF94FF40050ADF8000010208DF80300D9
:1003B00003208DF8020069460148FFF75DFF08BD84
:1003C0000010014010B54FF4A06000F001F810BD1E
:1003D00002490143024A1160704700000000FA051B
:1003E0000CED00E070B5002419E004F1B001C8B2D2
:1003F000002100F027F90021084600F023F9002130
:10040000102000F01FF9002505E00121002000F078
:1004100019F9681CC5B2802DF7DB601CC4B2082C2A
:10042000E3DB70BD2DE9F05F06460F4690461C46A3
:10043000DDF828A04FF0000BE11704EB5171C91053
:10044000A4EBC10131B92046E11704EB5171C1F3AE
:10045000C70506E02046E11704EB5171C910491C9D
:10046000CDB23D4615E02946304600F0D3F8B146FE
:100470000BE059460BF1010B1AF80100012100F0C5
:10048000E1F809F1010000F0FF09C145F1DB681C4A
:10049000C5B2A542E7DBBDE8F09F000008B5012129
:1004A000042000F009F9B020ADF8000010208DF80C
:1004B000030003208DF8020069465448FFF7DCFE74
:1004C000B0215248FFF765FF0121082000F0F4F841
:1004D0000320ADF8000010208DF8030003208DF8F4
:1004E000020069464A48FFF7C7FE03214848FFF764
:1004F00050FF01214648FFF74CFF642000F03CFA12
:1005000001214348FFF743FFC82000F035FA0121DD
:100510003F48FFF73EFF0021AE2000F093F8002196
:10052000084600F08FF80021102000F08BF8002121
:10053000402000F087F80021812000F083F800219E
:10054000CF2000F07FF80021A12000F07BF80021EF
:10055000C82000F077F80021A62000F073F80021F1
:10056000A82000F06FF800213F2000F06BF8002178
:10057000D32000F067F80021084600F063F800215E
:10058000D52000F05FF80021802000F05BF800210A
:10059000D92000F057F80021F12000F053F8002195
:1005A000DA2000F04FF80021122000F04BF8002173
:1005B000DB2000F047F80021402000F043F8002144
:1005C000202000F03FF80021022000F03BF800213D
:1005D0008D2000F037F80021142000F033F80021BE
:1005E000A42000F02FF80021A62000F02BF8002115
:1005F000AF2000F027F80021AF2000F023F8FFF72C
:10060000F1FE0021084600F005F808BD0008014091
:10061000000C014070B504460D4605F1B001C8B2AA
:10062000002100F00FF8102141EA1410002100F021
:1006300009F804F00F0141F00100002100F002F878
:1006400070BD000070B504460E4626B10221184860
:10065000FFF79FFE03E002211548FFF798FE1021E7
:100660001448FFF794FE002517E020211148FFF7FA
:100670008EFE04F0800020B180210E48FFF789FE35
:1006800003E080210B48FFF782FE20210948FFF795
:1006900080FE6006040E681CC5B2082DE5DB102143
:1006A0000448FFF776FE02210148FFF772FE70BD95
:1006B000000C01400008014029B1064A926902433A
:1006C000044B9A6104E0034A92698243014B9A61A8
:1006D000704700000010024010B500F001F810BD96
:1006E0000CB50020019000903348006840F4803041
:1006F0003149086000BF3048006800F400300090C5
:100700000198401C0190009818B90198B0F5A06FAD
:10071000F1D12948006800F4003010B101200090A8
:1007200001E0002000900098012843D12348006890
:1007300040F01000214908600846006820F00300DE
:1007400008600846006840F0020008601A484068E7
:10075000194948600846406848600846406840F4C7
:10076000806048600846406820F47C104860084675
:10077000406840F4E81048600846006840F0807027
:10078000086000BF0C48006800F000700028F9D035
:100790000948406820F0030007494860084640685F
:1007A00040F00200486000BF0348406800F00C00C1
:1007B0000828F9D10CBD00000010024000200240C2
:1007C000042808D14FF0E021096941F004014FF0FD
:1007D000E022116107E04FF0E021096921F00401F6
:1007E0004FF0E0221161704710B51348006840F0E7
:1007F00001001149086008464068104908400E4948
:100800004860084600680E4908400B4908600846E1
:10081000006820F4802008600846406820F4FE004C
:1008200048604FF41F008860FFF756FF4FF00060EC
:100830000449086010BD0000001002400000FFF8ED
:10084000FFFFF6FE08ED00E010B540F225511D480F
:1008500000F03EF810B31B4800F064F8C4B21A4828
:10086000008800F40040C8B91748008800F48040B0
:1008700060B10A2C03D000201349088020E0124800
:10088000008840F400401049088019E00D2C06D182
:100890000D48008840F480400B49088010E00A4869
:1008A0000088C0F30D0009490C5407480088401C1B
:1008B0000549088008460088C72801DD0020088017
:1008C00010BD00000038014008080020200800206A
:1008D00070B50246002400230025002040F66A1669
:1008E000B14200D100BFC1F3421501F01F03012640
:1008F00006FA03F3012D02D19689334006E0022D5A
:1009000002D1168A334001E0968A33400C12012648
:1009100006FA04F41688344013B10CB1012000E04B
:10092000002070BD01468888C0F30800704701466A
:1009300000BF704710B56FF00400FFF741FF0A4891
:1009400000680A49B0FBF1F00949087008460078D0
:1009500000EB4001C1EBC0104FF6FF7101EAC0008F
:100960000449088010BD00000C08002000127A0025
:1009700000080020020800200146114A12884A435C
:100980004FF0E0235A6100229A611A46126942F040
:1009900001021A6100BF4FF0E022106900F001026D
:1009A0001AB100F48032002AF5D04FF0E02212692B
:1009B00022F001024FF0E0231A6100229A61704791
:1009C0000208002008B5FFF7B5FFFFF7FBFCFFF7B3
:1009D00065FDFFF7E1FCFFF705FD21E04FF47A70BC
:1009E000FFF7CAFF4FF47A70FFF7C6FF0D480823E0
:1009F0008022002100900846FFF714FD4FF47A7022
:100A0000FFF7BAFF0848082380220021009008461B
:100A1000FFF708FD0548C06880F400500349C8602E
:100A2000DCE700000000002000040020001001406E
:100A3000500A0008000000202008000028010008DB
:100A4000480C000820080020280700008C0100083E
:100A500040120003050911FF118905C300E000F0F1
:100A600000F8000100083A4428FF11AA4400015090
:100A70000B830138448292927401831120087C44D4
:100A8000FF017D7D7D04410540047D01FF6E9201E3
:100A900002613F033B01017E81419149F201010165
:100AA0001BC230083F3F0303F3131101100601F18D
:100AB000116181402005816111F1473341410720D7
:100AC0000401C12120A321C1143119313704073693
:100AD000D33303033F3F426006E0E000007FA812EB
:100AE0007FBF40040618060A1008000040407F40FF
:100AF00040A410041F204001A3201F143300600EE7
:100B00006004300C03460534C21004070706017068
:100B10000904040484444444840780050484C40410
:100B20001501120A71112140073D0707C9200F0066
:100B300000101814121100000F1010100F0F131FC7
:100B40001015600D081012120D00001800000D1293
:100B50000A51295130015E01528001013B451404C4
:100B60007F030CA915DE1C05385454582503080AC8
:100B70002004047800003C40407C2000092CFFAA9F
:100B8000AAAA280800FF6810062649494932101011
:100B900005020408100F0D6F00049D01040D9D0057
:100BA00004156343F80801240500F81860E82404DC
:100BB000806018235720202923E01021A310E0147F
:100BC00049B4313908043C886818630D15FF037D6A
:100BD000EA039DFF0371144DFF031D06043D2E041F
:100BE0000942E91C0640202020C04A04110721EADE
:100BF0003E40520452600E8118712951070D476919
:100C0000031C060C0A0A090C0004156B2D000420B5
:100C100004080F081510050809090E071D180430EF
:100C2000050909090F0A512951070DFF00040D227A
:100C30000004AD71067C04A24A042B0700080002E0
:080C4000030406070809000087
:04000005080000ED02
:00000001FF
